{
  "_format": "hh-sol-artifact-1",
  "contractName": "SimpleContract",
  "sourceName": "contracts/SmartContract.sol",
  "abi": [
    {
      "inputs": [
        {
          "internalType": "string",
          "name": "_email",
          "type": "string"
        }
      ],
      "name": "deleteUser",
      "outputs": [],
      "stateMutability": "nonpayable",
      "type": "function"
    },
    {
      "inputs": [],
      "name": "getAllUsers",
      "outputs": [
        {
          "components": [
            {
              "internalType": "string",
              "name": "name",
              "type": "string"
            },
            {
              "internalType": "string",
              "name": "email",
              "type": "string"
            },
            {
              "internalType": "string",
              "name": "password",
              "type": "string"
            }
          ],
          "internalType": "struct SimpleContract.User[]",
          "name": "",
          "type": "tuple[]"
        }
      ],
      "stateMutability": "view",
      "type": "function"
    },
    {
      "inputs": [
        {
          "internalType": "string",
          "name": "_name",
          "type": "string"
        },
        {
          "internalType": "string",
          "name": "_email",
          "type": "string"
        },
        {
          "internalType": "string",
          "name": "_password",
          "type": "string"
        }
      ],
      "name": "setUser",
      "outputs": [],
      "stateMutability": "nonpayable",
      "type": "function"
    }
  ],
  "bytecode": "0x608060405234801561001057600080fd5b50610ee7806100206000396000f3fe608060405234801561001057600080fd5b50600436106100415760003560e01c80636b17b27414610046578063d369516114610062578063e2842d791461007e575b600080fd5b610060600480360381019061005b91906108af565b61009c565b005b61007c6004803603810190610077919061086e565b610176565b005b61008661035f565b6040516100939190610bda565b60405180910390f35b60006040518060600160405280858152602001848152602001838152509050806000846040516100cc9190610bac565b908152602001604051809103902060008201518160000190805190602001906100f6929190610675565b506020820151816001019080519060200190610113929190610675565b506040820151816002019080519060200190610130929190610675565b5090505060018390806001815401808255809150506001900390600052602060002001600090919091909150908051906020019061016f929190610675565b5050505050565b6000816040516101869190610bac565b9081526020016040518091039020600080820160006101a591906106fb565b6001820160006101b591906106fb565b6002820160006101c591906106fb565b505060005b60018054905081101561035b57818051906020012060018281548110610219577f4e487b7100000000000000000000000000000000000000000000000000000000600052603260045260246000fd5b906000526020600020016040516102309190610b95565b604051809103902014156103485760018080805490506102509190610ce7565b81548110610287577f4e487b7100000000000000000000000000000000000000000000000000000000600052603260045260246000fd5b90600052602060002001600182815481106102cb577f4e487b7100000000000000000000000000000000000000000000000000000000600052603260045260246000fd5b906000526020600020019080546102e190610d67565b6102ec92919061073b565b506001805480610325577f4e487b7100000000000000000000000000000000000000000000000000000000600052603160045260246000fd5b60019003818190600052602060002001600061034191906106fb565b905561035b565b808061035390610dca565b9150506101ca565b5050565b6060600060018054905067ffffffffffffffff8111156103a8577f4e487b7100000000000000000000000000000000000000000000000000000000600052604160045260246000fd5b6040519080825280602002602001820160405280156103e157816020015b6103ce6107c8565b8152602001906001900390816103c65790505b50905060005b60018054905081101561066d57600060018281548110610430577f4e487b7100000000000000000000000000000000000000000000000000000000600052603260045260246000fd5b906000526020600020016040516104479190610bc3565b908152602001604051809103902060405180606001604052908160008201805461047090610d67565b80601f016020809104026020016040519081016040528092919081815260200182805461049c90610d67565b80156104e95780601f106104be576101008083540402835291602001916104e9565b820191906000526020600020905b8154815290600101906020018083116104cc57829003601f168201915b5050505050815260200160018201805461050290610d67565b80601f016020809104026020016040519081016040528092919081815260200182805461052e90610d67565b801561057b5780601f106105505761010080835404028352916020019161057b565b820191906000526020600020905b81548152906001019060200180831161055e57829003601f168201915b5050505050815260200160028201805461059490610d67565b80601f01602080910402602001604051908101604052809291908181526020018280546105c090610d67565b801561060d5780601f106105e25761010080835404028352916020019161060d565b820191906000526020600020905b8154815290600101906020018083116105f057829003601f168201915b50505050508152505082828151811061064f577f4e487b7100000000000000000000000000000000000000000000000000000000600052603260045260246000fd5b6020026020010181905250808061066590610dca565b9150506103e7565b508091505090565b82805461068190610d67565b90600052602060002090601f0160209004810192826106a357600085556106ea565b82601f106106bc57805160ff19168380011785556106ea565b828001600101855582156106ea579182015b828111156106e95782518255916020019190600101906106ce565b5b5090506106f791906107e9565b5090565b50805461070790610d67565b6000825580601f106107195750610738565b601f01602090049060005260206000209081019061073791906107e9565b5b50565b82805461074790610d67565b90600052602060002090601f01602090048101928261076957600085556107b7565b82601f1061077a57805485556107b7565b828001600101855582156107b757600052602060002091601f016020900482015b828111156107b657825482559160010191906001019061079b565b5b5090506107c491906107e9565b5090565b60405180606001604052806060815260200160608152602001606081525090565b5b808211156108025760008160009055506001016107ea565b5090565b600061081961081484610c21565b610bfc565b90508281526020810184848401111561083157600080fd5b61083c848285610d25565b509392505050565b600082601f83011261085557600080fd5b8135610865848260208601610806565b91505092915050565b60006020828403121561088057600080fd5b600082013567ffffffffffffffff81111561089a57600080fd5b6108a684828501610844565b91505092915050565b6000806000606084860312156108c457600080fd5b600084013567ffffffffffffffff8111156108de57600080fd5b6108ea86828701610844565b935050602084013567ffffffffffffffff81111561090757600080fd5b61091386828701610844565b925050604084013567ffffffffffffffff81111561093057600080fd5b61093c86828701610844565b9150509250925092565b60006109528383610b37565b905092915050565b600061096582610c8c565b61096f8185610caf565b93508360208202850161098185610c52565b8060005b858110156109bd578484038952815161099e8582610946565b94506109a983610ca2565b925060208a01995050600181019050610985565b50829750879550505050505092915050565b600081546109dc81610d67565b6109e68186610cc0565b94506001821660008114610a015760018114610a1257610a45565b60ff19831686528186019350610a45565b610a1b85610c62565b60005b83811015610a3d57815481890152600182019150602081019050610a1e565b838801955050505b50505092915050565b6000610a5982610c97565b610a638185610ccb565b9350610a73818560208601610d34565b610a7c81610ea0565b840191505092915050565b6000610a9282610c97565b610a9c8185610cdc565b9350610aac818560208601610d34565b80840191505092915050565b60008154610ac581610d67565b610acf8186610cdc565b94506001821660008114610aea5760018114610afb57610b2e565b60ff19831686528186019350610b2e565b610b0485610c77565b60005b83811015610b2657815481890152600182019150602081019050610b07565b838801955050505b50505092915050565b60006060830160008301518482036000860152610b548282610a4e565b91505060208301518482036020860152610b6e8282610a4e565b91505060408301518482036040860152610b888282610a4e565b9150508091505092915050565b6000610ba182846109cf565b915081905092915050565b6000610bb88284610a87565b915081905092915050565b6000610bcf8284610ab8565b915081905092915050565b60006020820190508181036000830152610bf4818461095a565b905092915050565b6000610c06610c17565b9050610c128282610d99565b919050565b6000604051905090565b600067ffffffffffffffff821115610c3c57610c3b610e71565b5b610c4582610ea0565b9050602081019050919050565b6000819050602082019050919050565b60008190508160005260206000209050919050565b60008190508160005260206000209050919050565b600081519050919050565b600081519050919050565b6000602082019050919050565b600082825260208201905092915050565b600081905092915050565b600082825260208201905092915050565b600081905092915050565b6000610cf282610d1b565b9150610cfd83610d1b565b925082821015610d1057610d0f610e13565b5b828203905092915050565b6000819050919050565b82818337600083830152505050565b60005b83811015610d52578082015181840152602081019050610d37565b83811115610d61576000848401525b50505050565b60006002820490506001821680610d7f57607f821691505b60208210811415610d9357610d92610e42565b5b50919050565b610da282610ea0565b810181811067ffffffffffffffff82111715610dc157610dc0610e71565b5b80604052505050565b6000610dd582610d1b565b91507fffffffffffffffffffffffffffffffffffffffffffffffffffffffffffffffff821415610e0857610e07610e13565b5b600182019050919050565b7f4e487b7100000000000000000000000000000000000000000000000000000000600052601160045260246000fd5b7f4e487b7100000000000000000000000000000000000000000000000000000000600052602260045260246000fd5b7f4e487b7100000000000000000000000000000000000000000000000000000000600052604160045260246000fd5b6000601f19601f830116905091905056fea2646970667358221220b9b021192cff06b6ea3ae182e5838fbe793e4f446b4b3c20c0e8529ee2e1b1f264736f6c63430008040033",
  "linkReferences": {},
  "deployedLinkReferences": {}
}